:06000000020069020F245A
:03000B00022E5171
:03001300022E2A90
:03001B00022E7240
:0300230002312D7A
:03002B00020F665B
:03003300022FC0D9
:03003B0002312E61
:03004300020100B7
:03004B0002267317
:03005300020100A7
:03005B00022E2B47
:03006300022E2C3E
:0300C200020066D3
:03006600020F9BEB
:2001BE00AF82BF033B7800E2B4EE357872740CF2087432F290320CE4937874F208E4F29035
:2001DE00E0001223BA7D007EE090E6B57401F090E6B3EEF090E6B4EDF090E6A07480F0229D
:2001FE00789DEFF27800799EE2F3903202022A1278787401F208E4F2087460F27876E4F2BE
:20021E0008F2787B04F208E4F2787D04F27582511223EBE58260407801E2B4FF0280387865
:20023E0001E2B4C201227801E2B4C02B787874C0F208743FF208E4F27876740CF208E4F24B
:20025E00787B7429F208E4F2787D04F27582511223EBE582600122903FC074F9F078727499
:20027E0046F2087432F278747410F208E4F2903FC11223BA903FD1E4F0A3F0A3F0A3F0227A
:20029E00903FC0E0FFBF4102800ABF4202800DBF431A8010903FC07410F08011903FC07473
:2002BE0020F08009903FC07430F0800122903EB97401F0788274B9F208743EF208E4F278BA
:2002DE00807407F208E4F2788504F208E4F2788704F278887408F2788974FFF27582511241
:2002FE002488903EB974C0F0788274B9F208743EF208E4F27880F208F2788504F208E4F231
:20031E00788704F278887408F2788974FFF2758251122488903FC0E0903EB9F0788274B9E3
:20033E00F208743EF208E4F278807405F208E4F2788504F208E4F2788704F278887408F2AE
:20035E00788974FFF2758251122488788274B9F208743EF208E4F27880740CF208E4F278B0
:20037E008504F208E4F2788704F278887408F2788974FFF27582510224887802745BF20804
:20039E007431F290316BE493FD1DC2D575F002ED30E704B2D5F404A430D50AF42401C5F0E5
:2003BE00F43400C5F024F2F582743135F0F583E493FCA3E493FD7804ECF208EDF27802E24C
:2003DE00240CFA08E23400FB8A828B83E0FEA3E0FF903FC0E07C004206EC42078A828B83C0
:2003FE00EEF0EFA3F0903FC0E0C4540F2440FF7804E2F58208E2F583EFF07804E22401FEEF
:20041E0008E23400FF903FC0E0FD740F5D24308E828F83F07804E22403FE08E23400FF8EC1
:20043E00828F83787274C1F208743FF278747410F208E4F21223BA903FC0E0FFBFF9287857
:20045E0002E22408F58208E23400F58374B4F07404A3F07802E2240AF58208E23400F583A7
:20047E007413F07486A3F0227806E2540524FFE433F58212117A7806E2035401F5820211EF
:20049E0062AF827806E24FF2020486AF827806E25207EF24FFE433F58222AF827806E25FE2
:2004BE00600FEFF4FF7806E25FF212048675820122758200227807E2600790E6A07401F00A
:2004DE002278077401F222AF82BF00028026BF01028005BF021A800C758200C007121F524D
:2004FE00D0078010758201C007121F52D0078004758200227898EFF27808E4F27809F2788F
:20051E00A214F278A3F2903202122CB675820122AF827898E2B4010280087898E2B4020A22
:20053E0080047E0080087E01800475820022780AE2B4011B8F058DF005F0785C74018002F2
:20055E0025E0D5F0FBF28E82C007121FB1D007EF2408F8790AE3F278A2EFF2780A79A3E250
:20057E00F3903202122CB675820122E5822408F9E390E740F090E6B57401F090E68AE4F01E
:20059E0090E68B04F090E6A003F02290E6B8E0FFE4BF400104FE601390E6B9E0FDBDB00B33
:2005BE007807E4F290E6A07480F022E4BFC00104FD7006EE70030207B290E6B9E0FCE4BC0A
:2005DE00A90104FB7008BC100280030207B2EF235401FE7F0090E6BA780DE0F2A3E008F2E8
:2005FE0090E6BE780FE0F2A3E008F27C00EB60057F5102069C90E6BCE0FAA3E0FBC37403CF
:20061E009AE49B4079EA2A900629738006800A800E80127F517C0680657F527C08805F7F8A
:20063E00537C088059780DE2FA08E2FBC3E49A74109B404AC002C003780FE2FA08E2FBC32C
:20065E00E49A74109BD003D0024033C002C003780D790FE3C5F0E225F0FA09E3C5F008E221
:20067E0035F0FBC3E49A74109BD003D002400F7F517C0674702BFB780DEAF208EBF27807C7
:20069E00E4F2EF700790E6A07401F022780FE2F5F008E245F0700122780FE2FA08E2FBC358
:2006BE00EA9440EB940040047A407B00EE605190E6A0E020E1F978787440F20874E7F208E4
:2006DE00E4F2787BEAF208E4F2780D7976E2F308E209F3787D7401F28F821223EBE58270E6
:2006FE000790E6A07401F02290E6B57401F090E68AE4F090E68BEAF090E6A07480F0805728
:20071E0090E6B57401F090E68AE4F090E68BF090E6A07480F090E6A0E020E1F978827440CE
:20073E00F20874E7F208E4F27885EAF208E4F2780D7980E2F308E209F378877401F2788820
:20075E00ECF2788974FFF28F82122488E582700790E6A07401F022C0048A08750900780F92
:20077E00E2F50A08E2F50BE50AC39508FBE50B9509FC780FEBF208ECF2780DE2FA08E2FC2B
:20079E00E5082AFAE5093CFC780DEAF208ECF2D0040206AAED7006EE700302085590E6B9E5
:2007BE00E0FCBC13028003020855EF235401FC90E6BAE0FF90E6BEE0FAA3E0FB7807E4F239
:2007DE008F82C004C003C002121295E582D002D003D004605BEC603290E6A0E020E1F98A55
:2007FE0004781AECF290E740C0041212C4E582D004603D90E6B57401F090E68AE4F090E652
:20081E008BECF090E6A07480F02290E6B57401F090E68AE4F090E68BF090E6A07480F09058
:20083E00E6A0E020E1F9781BEAF290E7400212F590E6A07401F022ED604390E6B9E0FCBC17
:20085E00123B90E6BEE0FBA3E0FCBB0130BC002D7807E4F290E6A0E020E1F990E740780650
:20087E00E2F090E6B57401F090E68AE4F090E68B04F090E6A003F07582010204B8EE70030F
:20089E0002099590E6B9E0FCBC1102800302099590E6BCE0FBA3E0FC4B6027C007780BE213
:2008BE00FA08E2FF74012AF50AE43FF50B8B028C07EAB50A06EFB50B028005D007020995FA
:2008DE00D0078B078C0690E6BEE0FAA3E0FD7807E4F2EF4E702E758202C007C006C005C036
:2008FE00021204B87890E4F278917410F208E4F2903FD575F000122674121186D002D005CA
:20091E00D006D007EA4D60678A038D04C3EB9440EC940040047B407C0090E6B57401F09053
:20093E00E68AE4F090E68BF090E6A07480F090E6A0E020E1F97818EBF290E740C007C006C9
:20095E00C005C003C0021211FBD002D003D005D006D0078B0A750B008A088D09AB0AAC0B41
:20097E00E508C39BFBE5099CFC8B028C058095780BEFF208EEF222ED7006EE7003020A4AD2
:20099E0090E6B9E0FCBC18028003020A4A90E6BEE0FBA3E0FCBB1005BC00028003020A4A8A
:2009BE00EF235401FC7807E4F2EC603690E6A0E020E1F9787274D5F208743FF278747410AD
:2009DE00F208E4F290E7401223BA90E6B57401F090E68AE4F090E68B7410F090E6A07480A0
:2009FE00F02212124F12128CE582603975820212049F90E6B57401F090E68AE4F090E68B91
:200A1E00F090E6A07480F090E6A0E020E1F978727440F20874E7F278747410F208E4F29029
:200A3E003FD50223BA90E6A07401F022ED7006EE7003020AF390E6B9E0FCBC1402800302E3
:200A5E000AF390E6BEE0FBA3E0FCBB0205BC00028003020AF3EF235401FC90E6BCE0FB7803
:200A7E0007E4F2EC603890E6A0E020E1F978217440F20874E7F28B8212148BE58270079047
:200A9E00E6A07401F02290E6B57401F090E68AE4F090E68B7402F090E6A07480F02290E6CE
:200ABE00B57401F090E68AE4F090E68B7402F090E6A07480F090E6A0E020E1F9781D744090
:200ADE00F20874E7F28B82121386E582700675820102049F22ED607290E6B9E0FCBC156A58
:200AFE0090E6BEE0FBA3E0FCBB025FBC005C90E6BCE0FC7807E4F290E6A0E020E1F9903FF4
:200B1E00C0E0FBBB321278457440F20874E7F28C82121BF0AB828010782A7440F20874E7D2
:200B3E00F28C821216FEAB82EB700790E6A07401F02290E6B57401F090E68AE4F090E68BE0
:200B5E007402F090E6A07480F022ED7006EE7003020C5D90E6B9E0FCBC16028003020C5DF9
:200B7E0090E6BEE0FBA3E0FCBB0405BC00028003020C5DEF235401FC90E6BCE0FB7807E486
:200B9E00F2EC606B90E6A0E020E1F9903FC0E0FCBC321E78497440F20874E7F2784B740232
:200BBE002440F2E434E708F28B82121C61AC82801C78387440F20874E7F2783A740224402B
:200BDE00F2E434E708F28B82121909AC82EC700790E6A07401F02290E6B57401F090E68A0D
:200BFE00E4F090E68B7404F090E6A07480F02290E6B57401F090E68AE4F090E68B7404F0B1
:200C1E0090E6A07480F090E6A0E020E1F9903FC0E0FCBC32047C01801C782E7440F208748E
:200C3E00E7F2783074022440F2E434E708F28B8212176EAC82EC700675820102049F22ED70
:200C5E00604790E6B9E0FCBC173F90E6BEE0FBA3E0FCBB0134BC00317807E4F290E6A0E0FC
:200C7E0020E1F9783F7401F290E740121A1E90E6B57401F090E68AE4F090E68B04F090E66E
:200C9E00A003F07582040204B8EE602F90E6B9E0FCBC192790E6BEE0FBA3E0FC4B701C9071
:200CBE00E6BAE0FBA3E04B24FFE433F5827807E4F212133590E6A07480F022ED7006EE7090
:200CDE0003020DBC90E6B9E0FCBC1A028003020DBC90E6BEE0FBA3E0FCBB0205BC00028069
:200CFE0003020DBCEF235401FC90E6BCE0FB7807E4F2EC603890E6A0E020E1F9782774407C
:200D1E00F20874E7F28B8212162EE582700790E6A07401F02290E6B57401F090E68AE4F02C
:200D3E0090E68B7402F090E6A07480F02290E6B57401F090E68AE4F090E68B7402F090E6D1
:200D5E00A07480F090E6A0E020E1F978257440F20874E7F28B82121549E582700675820117
:200D7E0002049F788274E5F208743FF208E4F278807431F208E4F278857404F208E4F278B6
:200D9E008704F278887408F2788974FFF2758251122488E582700675820102049F22ED70E5
:200DBE0006EE7003020E8A90E6B9E0FEBE1B028003020E8A90E6BEE0FCA3E0FEBC0205BEFD
:200DDE0000028003020E8AEF235401FF90E6BCE0FE7807E4F2EF604E90E6A0E020E1F990EE
:200DFE003FC0E0FFBF3000401E78587440F20874E7F2785A74012440F2E434E708F28E8239
:200E1E00121E93E582700790E6A07401F02290E6B57401F090E68AE4F090E68B7402F0901B
:200E3E00E6A07480F02290E6B57401F090E68AE4F090E68B7402F090E6A07480F090E6A02D
:200E5E00E020E1F9903FC0E0FFBF3000401790E7407856E0F290E7417857E0F28E82121EF6
:200E7E0056E582700675820102049F22ED603B90E6B9E0FFBF0F3390E6BEE0FEA3E0FFBE79
:200E9E000128BF00257807E4F290E6A0E020E1F990E7407401F090E6B5F090E68AE4F09047
:200EBE00E68B04F090E6A003F022ED605290E6B9E0FFBFC04A90E6BCE0FF7807E4F2BF04E5
:200EDE00377872741EF2087432F290321E7874E493F2A3E49308F290E0001223BA7E007F0A
:200EFE00E090E6B57401F090E6B3EFF090E6B4EEF090E6A07480F02290E6A07401F022900B
:200F1E00E6A07401F022C0E0C000C0D075D00078117401F2D0D0D000D0E032903EBBE4F0D2
:200F3E00A3F07811F275820412049F783FE4F2903EBA121A1E903EBAE0FF781D74BBF20851
:200F5E00743EF28F8202138653B0EFC2CAC2CF32C0E0C082C08343B010D2CA5391EF90E6D5
:200F7E005F74F3F0D083D082D0E032020F6E020F6E020F6E020F6E020F6E020F6E90E600A6
:200F9E007412F090E67A7401F012020E12029E120398121156121326903FC0E0FFBF320FB5
:200FBE00121B47E582700B75820112049F8003121685121EE5122E2D90E611E4F0122E2D96
:200FDE0090E610E4F075C801D2AD90E65EE043E0F3F0D2A8903FD1E0FCA3E0FDA3E0FEA388
:200FFE00E0FFEC4D4E4F7003021131903FD17812E0F2A3E008F2A3E008F2A3E008F27D5225
:20101E007816E4F208F2758201C00512116E121186D0057812E2F5F008E242F008E242F0FF
:20103E0008E245F070030211087C807812C3E2948008E2940008E2940008E2940050047860
:20105E0012E2FC78787400F20874E0F208E4F2787BECF208E4F278167976E2F308E209F319
:20107E00787D7401F28D821223EBE582700875820112049F80747818ECF290E000C005C0E4
:20109E00041211FBD004D0058C027B007E007F007812E2C39AF208E29BF208E29EF208E2CB
:2010BE009FF28C037F007816E2FA08E2FEEB2AFAEF3EFE7816EAF208EEF27816E2F5F00838
:2010DE00E245F060030210318D03EB04FDBD540280030210317D517816E2FA08E22470FB2F
:2010FE007816EAF208EBF20210317812E2F5F008E242F008E242F008E245F0701012124FA5
:20111E0012128CE582700675820112049F75820012116E12128CE582600675820212049FC4
:18113E007582011226C87807E260031205A97811E260F3120F3980EE97
:20315B001201000200000040B720B19D0001010203020A06000200000008000009040000AA
:20317B0000FFFFFF060904000102FFFFFF070904000102FFFFFF080904010000FFFFFF06F7
:20319B000904010102FFFFFF07070502020002000705040200020007058602000200070537
:2031BB0088020002000902000002010480FA77318031A431B23192319B31AB31B931000076
:2031DB000902000001020580FA77318931A431B2310000C031DB3157326B327E329232CEC8
:2031FB0032EE32F7320C335B316D3102EE3108F23112034D005300460054003100300030A4
:20321B0000C00028000000000104000100000000000000000157494E5553420000000000CC
:20323B00000000000000000000000039393939393939393939393939393939007768697427
:20325B0065717561726B20726573656172636800476C6173676F7720446562756720546F9F
:20327B006F6C0058582D585858585858585858585858585858580050697065205020617408
:20329B00207B327835313242204550324F55542F455036494E7D2C2051206174207B327830
:2032BB0035313242204550344F55542F455038494E7D00506970652050206174207B3478EE
:2032DB0035313242204550324F55542F455036494E7D0044697361626C656400446F75626A
:2032FB006C652D6275666665726564203531324200517561642D6275666665726564203528
:04331B003132420009
:20115600740445B054C7F5B043B53C22E582600443B0082253B0F722E582600443B0102202
:1011760053B0EF22E582600443B0202253B0DF2251
:20118600122E2D90E601E053E0FCF0903FC0E0FFBF10028014BF2002800FBF30028012BFE1
:2011A6003102800DBF3210800843B50253B0FD800643B2025380FD9000011230FD53B2F7CD
:2011C60043B31C4390105390F7903FC0E0FFBF10028014BF2002800FBF3002800FBF310285
:2011E600800ABF320A800543B00280034380029004B00230FD75AF0385829B85839A90E64E
:201206007B7818E2F8E0A2E7C2949292D294A2E6C2949292D294A2E5C2949292D294A2E445
:20122600C2949292D294A2E3C2949292D294A2E2C2949292D294A2E1C2949292D294A2E01A
:20124600C2949292D294D8BD227431C29400D294D5E0F853B3E3903FC0E0FFBF1002801427
:20126600BF2002800FBF30028013BF3102800EBF3213800990E601E043E023F02290E60141
:20128600E043E063F022E580A2E3E433F58222E5827819F27582101221A6E58260197866AE
:2012A6007401F208E4F2903E1975F0601221DAE5826004758201221221BE75820022AE820B
:2012C600AF837582111221A6E582601C7D00781A796BE2F309E4F38E828F838DF012226136
:2012E600E5826004758201221221BE75820022AE82AF837D00781B7966E2F309E4F38E82E3
:201306008F838DF01221DAE582600E1221BEE5827003F58222758201221221BE75820022CE
:2013260074BE55B04480F5B043B5C153B07F22E582600453B07F2243B08022AF827E008F68
:2013460005BD0102800ABF02028009BD031180087E0C800B7E0D8007781CE270027E48EED0
:201366007003F58222EE2EFE781CE24EF5821221A6E58270071221BE75820022758201222B
:20138600AF827E00781DE2F58208E2F583E0FCA3E0FDEF30E0027E01EF30E103430640EFF1
:2013A60030E013903FE5E0FAA3E0FBC3EA9CEB9D500475820022EF30E113903FE7E0FAA374
:2013C600E0FBC3EA9CEB9D500475820022EC4D7008EEF452B075820122C3EC9472ED940603
:2013E6004008747C9C74159D500475820022EC248EFCED34F9FD78A9ECF2E2F5F0EDC4C593
:20140600F0C4540F65F0C5F0540FC5F065F0F2C5F008F290010DC007C006122E52AC82ADFF
:2014260083D006D007EDC4CCC4540F6CCC540FCC6CCCFD74E0C39CFC740F9DFB781FEBF2F8
:201446007820ECF2781CE4F28F82C006121341E582D0067003F5822278667402F208E4F2FC
:20146600903E1F75F0601221DAE58270071221BE758200221221BEE5827003F58222EE422B
:20148600B075820122AF82BF01028005BF020A80047E0180087E40800475820022EE55B060
:2014A60070117821E2F58208E2F583E4F0A3F075820122781C7401F28F82121341E5827087
:2014C60003F58222786B7402F208E4F2903E2375F060122261E5827003F582227823E2FE08
:2014E6007F007824E27C004207EC42067821E2FC08E2FDEEC4CFC4540F6FCF540FCF6FCF3C
:20150600FE74FFC39FFFE49EFE78A9EFF208EEF2900098C005C004122E527863740AF208F3
:20152600E4F2122119E5828583F0D004D0052472FE740635F0FF8C828D83EEF0EFA3F07556
:20154600820122AF827825E2FD08E2FE8D828E83E0FBA3E0FC4B601D8B0C8C0DC3E50C9491
:2015660072E50D9406400A747C950C7415950D500475820022750C1F750D33850C82850DFA
:2015860083E493FA700302162AEA5F700302161C782174BDF208743EF28A82C007C006C0EB
:2015A60005C004C00312148BE582D003D004D005D006D0077003F58222C007903EBDE0FA20
:2015C600A3E0FFC3EB9AEC9FD0075030850C82850D83E493FA781DEDF208EEF28A82C00791
:2015E600C006C005C004C003121386E582D003D004D005D006D0077003F58222850C8285F4
:201606000D83A3E49325E0FA24E5F582E4343FF583EBF0ECA3F07402250CF50CE4350DF5AF
:201626000D02158175820122AF827E1F7D338E038D048B828C83E493FA6040EFB5022F78CB
:2016460027E2F52D08E2F52E8E828D83A3E49325E024E5F582E4343FF583E0FDA3E0FE85DB
:1F1666002D82852E83EDF0EEA3F07582012274022BFBE43CFC8B068C0580B775820022DE
:06331F00010002010000A4
:2016850090E670E043E001F05388FE22A982E3FE7F0009E37C004207EC4206EEC4CFC45467
:2016A5000F6FCF540FCF6FCFFE78A9EFF208EEF2900103122E527863740AF208E4F202210E
:2016C50019AE82AF8378A9EEF208EFF290000A122E5278637403F2087401F2122119AE8245
:2016E500E583C454F0CEC4CE6ECE54F0CE6EFF7829E2F9EFF309EEF322AF827D257E338DDF
:20170500038E048B828C83E493FA6059EFB502488D828E83A3E493FA785E742CF2785DE4A6
:20172500F2785F7402F28A8212206BE5827003F58222782AE2F50E08E2F50F75822C121697
:2017450091858210858311850E82850F83E510F0E511A3F07582012274022BFBE43CFC8BCC
:20176500058C06809E75820022AF827832E4F27833F27834740FF27835F4F278367403F27D
:201785007837E4F2782EE2F58208E2F583E0FDA3E0FE8D038E04C3747C9B74159C4023C048
:2017A500077830E2FB08E2FC8B828C83E0FAA3E0FF8A128F13C3747C951274159513D0079A
:2017C500500475820022ED4E700C747CB512077415B51302803778297432F28D828E83C0FF
:2017E50007C004C0031216C6D003D0048B828C83E0FBA3E0FC78297434F28B828C831216CC
:20180500C6D00778377414F2783774D4F27D257E338D828E83E493FC7003021905EC5F70E0
:20182500030218FB74012DFBE43EFC8B828C83E493FA78617432F278607403F2786214F2B1
:201845008A82C007C006C005C004C0031220C3E582D003D004D005D006D0077003F582220D
:201865008B828C83E493FA78617434F278607404F2786203F28A82C007C006C005C004C070
:20188500031220C3E582D003D004D005D006D0077003F582228B828C83E493FA786174369F
:2018A500F278607401F27862F28A82C007C006C005C004C0031220C3E582D003D004D00569
:2018C500D006D0077003F582228B828C83E493FB78617437F278607402F2786214F28B8219
:2018E500C007C006C0051220C3E582D005D006D0077003F5822274022DFDE43EFE021816B7
:2019050075820122AF827D257E338D038E048B828C83E493FA7003021A0EEFB502028003AD
:20192500021A0074012DF514E43EF515851482851583E493FD785E743EF2785D7402F278D4
:201945005F14F28D8212206BE5827003F58222783EE270217838E2F58208E2F583E4F0A3F3
:20196500F0783AE2F58208E2F583747CF07415A3F075820122851482851583E493FD785E6D
:20198500743CF2785D7403F2785F14F28D8212206BE5827003F582227838E2F51608E2F5EA
:2019A5001775823C121691AA82AE83851682851783EAF0EEA3F0851482851583E493FE7806
:2019C5005E743CF2785D7404F2785F03F28E8212206BE5827003F58222783AE2F51608E24E
:2019E500F51775823C121691AA82AE83851682851783EAF0EEA3F07582012274022BFBE45C
:201A05003CFC8B058C0602191375820022E5805401B40100E433F58222AF83E5827840F2BE
:201A250008EFF27840E2F58208E2F583E4F07C257D338C828D83E4937003021B4374012C17
:201A4500FAE43DFB8A828B83E493FF785E7442F2785D7401F2785FF28F82C005C004C003FB
:201A6500C00212206BE582D002D003D004D0057003F582227842E27003021B397843E4F24B
:201A85007840E2F58208E2F583E0FF8C828D83E49342077840E2F58208E2F583EFF08A82B3
:201AA5008B83E493FF785E7443F2785D7402F2785F14F28F82C005C004C003C00212206B48
:201AC500E582D002D003D004D0057003F58222783FE260308A828B83E493FA785E7442F20E
:201AE500785D7401F2785FF28A82C005C00412206BE582D004D0057003F582227843E244AD
:201B050004F280067843E254FBF28C828D83A3E493FF78617443F278607402F2786214F28D
:201B25008F82C005C0041220C3E582D004D0057003F5822274022CFCE43DFD021A377582EF
:021B450001227B
:06332500015402550000F6
:201B47007E2B7F338E828F83E4936039784474FFF28E828F83A3E493FD78617444F278603C
:201B670074D2F278627401F28D82C007C0061220C3E582D006D0077003F5822274022EFE92
:201B8700E43FFF80BF75820122E582F904F8E2FF7E007D008D248E238F228E21E3FAE4FB0D
:201BA700FEFFE5214202E5224203E5234206E524420778ABEAF208EBF208EEF208EFF290A4
:201BC7000005E4F5F0122E74AC82AD83AEF0C313FFEE13FEED13FDEC13FCEFC313EE13ED01
:201BE70013FDEC13F5828D8322AF827D2B7E338D038E048B828C83E493FA605AEFB5024944
:201C07008D828E83A3E493FA785E7447F2785D7488F2785F7402F28A8212206BE582700381
:201C2700F582227845E2F52508E2F526758247121B90858227858328852582852683E52787
:201C4700F0E528A3F07582012274022BFBE43CFC8B058C06809D75820022AF827D2B7E3339
:201C67008D038E048B828C83E493FA7003021D72EFB502028003021D6474012DF529E43E1A
:201C8700F52A852982852A83E493FD785E744FF2785D74D2F2785F7401F28D8212206BE5E1
:201CA700827003F58222784FE25401600F7849E2F58208E2F583E4F0A3F0804285298285C8
:201CC7002A83E493FD785E744DF2785D7458F2785F7402F28D8212206BE5827003F5822262
:201CE7007849E2F52B08E2F52C75824D121B90AA82AE83852B82852C83EAF0EEA3F0784F29
:201D0700E254026012784BE2F58208E2F583747CF07415A3F08042852982852A83E493FEFF
:201D2700785E744DF2785D7457F2785F7402F28E8212206BE5827003F58222784BE2F52B5D
:201D470008E2F52C75824D121B90AA82AE83852B82852C83EAF0EEA3F07582012274022B97
:0F1D6700FBE43CFC8B058C06021C6B7582002292
:06332B0001400241000018
:201D7600AF827E008F05BD01028005BF020880047E2080027E21EE7003F58222EE2EFE782D
:201D960050E24EF5821221A6E5827003F5822275820122AF827850E4F28F82121D76E582E4
:201DB600603878667401F208E4F2903E5175F0601221DAE582602378667401F208E4F290C4
:201DD6003E5275F0601221DAE582600E1221BEE5827003F58222758201221221BE75820050
:201DF60022AF827850E4F28F82C007121D76E582D007604578667401F208E4F2903E5375C3
:201E1600F0601221DAE582603078507401F28F82121D76E58260227854E2FD08E2FE7F0078
:201E3600786B7401F208E4F28D828E838FF0122261E5826004758201221221BE7582002241
:201E5600AF8278517401F278577952E2F38F82C007121DA9E582D0077003F582227856E2F2
:201E7600F4F278517403F278567952E2F38F82121DA9E5827003F5822275820122AF8278A7
:201E9600537401F2785A7954E2F308E209F38F82C007121DF7E582D0077003F58222785305
:201EB6007403F278587954E2F308E209F38F82121DF7E5827003F582227858E2FE08E2FF08
:0F1ED6008E828F83E0F48E828F83F075820122DB
:201EE500122E2D90E60B7403F0122E2D90E6017480F0122E2D90E6047480F0122E2D90E612
:201F050009E4F0122E2D90E6027498F0122E2D90E60374FEF0122E2D90E670E043E080F0F0
:201F2500122E2D90E618E053E0FEF0122E2D90E619E053E0FEF0122E2D90E61AE053E0FE95
:201F4500F0122E2D90E61BE053E0FEF022E582FF60067E007D0080047E027D80122E2D90A6
:201F6500E6047480F0122E2D90E61274A04EF0122E2D90E61374204DF0122E2D90E6147415
:201F8500E04EF0122E2D90E61574604DF0EF60067D017E0080047D037E00785CEDF28F827E
:201FA500121FB1122E2D90E604E4F022AF82785CE25401605F122E2D90E618E4F0122E2D26
:201FC50090E604E043E002F0122E2D90E6497482F0122E2D90E6497482F0EF6012122E2D9B
:201FE50090E6497482F0122E2D90E6497482F0122E2D90E6187410F0122E2D90E61AE4F0E5
:20200500122E2D90E604E043E006F0122E2D90E61A7404F0785CE25402604A122E2D90E6DD
:2020250019E4F0122E2D90E604E043E004F0122E2D90E6497484F0122E2D90E6497484F0A8
:20204500122E2D90E6197410F0122E2D90E61BE4F0122E2D90E604E043E008F0122E2D905A
:06206500E61B7404F022EA
:20206B00E5822582FFF5821221A6E582604378667401F208E4F2903E5D75F0601221DAE5E9
:20208B0082602E74014FF5821221A6E5826022785EE2FD7E007F60785F796BE2F309E4F3A6
:2020AB008D828E838FF0122261E5826004758201221221BE75820022E582FF25E0F58212FE
:2020CB0021A6E582604178667401F208E4F2903E6075F0601221DAE582602C7861E2FD7EDA
:2020EB00007F6078627966E2F309E4F38D828E838FF01221DAE582600E1221BEE58270033C
:0E210B00F58222758201221221BE7582002209
:20211900AE82AF837C007D007B10EF235401FAEE2EFEEF33FFEC2CFCED33FDEA600343045F
:20213900017863C3E2F5F0EC95F008E2F5F0ED95F040117863D3E29CF4B3FCB308E29DF420
:0E215900FD430601EB14FB70C18E828F8322C2
:20216700C007C000AF8290E678E020E00E7865E260F47865E4F2758200801F90E678E0306A
:20218700E2057582008013EF600D90E678E0FFA2E1E433F5828003758201D000D00722C089
:2021A70007AF8290E6787480F090E679EFF0758201122167D0072290E678E030E2047582DA
:2021C700002290E6787440F090E678E020E6F975820122C007C006C004C003C002C000AF18
:2021E700F0AE83E5827868F208EEF208EFF27866E2F5F008E245F07005758201804F7B0032
:202207007C007866E2B5030708E2B50402802B7868E22BFA08E23CFE08E2FF8A828E838FCC
:20222700F0123132FA90E679F0758201122167E58260070BBB00CB0C80C87866E2B5030894
:2022470008E2B50403D38001C3E433F582D000D002D003D004D006D00722C007C006C005C2
:20226700C004C003C002C001C000AFF0AE83E582786DF208EEF208EFF2786BE2F5F008E21A
:2022870045F070067582010223A9786BE2FB08E2FCBB0109BC000690E6787420F090E67938
:2022A700E07B007C007870E4F208F27870796BE2F5F0E3B5F00C08E2F5F009E3B5F00302FC
:2022C7002383758200122167E58270030223967870E2FD08E2FE74022DFDE43EFE786BE2F7
:2022E700B5050708E2B506028002800690E6787420F07870E2FD08E2FE0DBD00010E786B8A
:20230700E2B5050708E2B506028002803575AF03759AE6759B7890E67B7440F0E0ACE07818
:202327006D7970E3C5F0E225F0FD09E3C5F008E235F0FE08E2FF8D828E838FF0EC122E361C
:202347008025786D7970E3C5F0E225F0FD09E3C5F008E235F0FE08E2FF90E679E0FA8D8208
:202367008E838FF0122E367870E22401F208E23400F27870E2FB08E2FC0222B290E678E010
:2023870030E205758200801A90E678E020E6F9786BE2B5030808E2B50403D38001C3E43368
:1323A700F582D000D001D002D003D004D005D006D00722EE
:2023BA00AA82AB837872E2FC08E2FD7874E2FE08E2FFEE60010FEF601775AF078A9B8B9A0C
:1123DA008C9E8D9D90E67CE090E67BF0DEF6DFF42222
:2023EB00C007C006C005C001C000AF82787DE260127877E2FE787EEEF27876E2FE787FEE2D
:20240B00F280087876E2FE787EEEF2EF2FFFF5821221A6E5826055787DE2FDE23395E0FEAE
:20242B000DBD00010E7866EDF208EEF2903E7E75F0601221DAE582603374014FF58212218D
:20244B00A6E5826027787B796BE2F308E209F37878E2F58208E2F58308E2F5F0122261E557
:20246B00827004F582800B75820180061221BE758200D000D001D005D006D00722C007C027
:20248B0006C005C004C003C002C001C000AF82788AE4F208F2EF2FFFF5821221A6E5827055
:2024AB00030226437888E2FC8CF005F07B017C008006EB2BFBEC33FCD5F0F7788A7985C32B
:2024CB00E3F5F0E295F009E3F5F008E295F040030226437887E260127881E2FA788CEAF2CC
:2024EB007880E2FA788DEAF280087880E2FA788CEAF2C003C0047887E2FAE23395E0FC0AEE
:20250B00BA00010C7866EAF208ECF2903E8C75F0601221DAE582D004D0037003022643C071
:20252B00077880E2F58208E2F5838B028C0778B7EAF208EFF2C007C004C003C002C001C031
:20254B0000122FC2AD82AE83D000D001D002D003D004D007EAC39DFAEF9EFF788EEAF20862
:20256B00EFF27885798AE3F5F0C3E295F0FE09E3F5F008E295F0FF788EC3E2F5F0EE95F03D
:20258B0008E2F5F0EF95F0D00750207885798AE3F5F0C3E295F0C0E009E3F5F008E295F0D4
:2025AB00C0E0788FD0E0F218D0E0F27882798AE3C5F0E225F0FA09E3C5F008E235F0FD08D2
:2025CB00E2FE788E7966E2F308E209F38A828D838EF01221DAE582605F1221BEE5827004D7
:2025EB00F58280737E007889E2600B7889C3E2F5F0EE95F0500C8F821221A6E58270030E6E
:20260B0080E47889E2B50605758200804A7880798EE3C5F0E225F0F209E3C5F008E235F0B7
:20262B00F2788A798EE3C5F0E225F0F209E3C5F008E235F0F20224C61221BE788A7985E2B2
:20264B00F5F0E3B5F00C08E2F5F009E3B5F003D38001C3E433F582D000D001D002D003D0D8
:08266B0004D005D006D00722BF
:06009800E478FFF6D8FD3C
:012673003234
:20267400AFF0AE83E5827893F208EEF208EFF27893E2FA08E2FB08E2FC7891E2F52D08E298
:20269400F52EAE2DAF2E152D74FFB52D02152EEE4F60138A828B838CF07890E2122E36A326
:1426B400AA82AB8380DC7893E2F58208E2F58308E2F5F022A5
:2026C800AF827897E4F27898F2D2E890E668E043E008F090E65CE043E001F090E65D740139
:2026E800F0D2AF90E680E020E10890E680E043E002F0EF600E90E680E043E008F090000AAF
:2027080012310790E680E053E0F7F022AF82BF00028037BF01028036BF02028039BF0402F3
:202728008038BF06028037BF08028036BF80028019BF8102801CBF8202801BBF8402801A67
:20274800BF86028019BF881E801890E6A02290E6A12290E6A22290E6A32290E6A42290E6FC
:20276800A52290E6A62290000022C020C0E0C0F0C082C083C007C006C005C004C003C0024A
:20278800C001C000C0D075D000C08675860090E6B8E0FFE4BF800104FE601B90E6B9E0FDE0
:2027A800BD061390E6BAE0FCA3E0F5827800ECF21201BE0229EAEF702790E6B9E0FDBD09A1
:2027C8001F90E6BAE0F5821204E5E582600990E6A07480F00229EA90E6A07401F00229EAE1
:2027E800EE600E90E6B9E0FDBD080612305D0229EA8F05BD012F90E6B9E0FDBD0B2790E6F8
:20280800BCE0FD90E6BA780AE0F28D8212052EE582600990E6A07480F00229EA90E6A074D6
:2028280001F00229EAE4BF810104FD601490E6B9E0FCBC0A0C90E6BCE0F5821205890229BF
:20284800EAEF703790E6B9E0FCBC032F90E6BAE0FBA3E0FCBB0110BC000D78977401F290D2
:20286800E6A003F00229EABB0205BC000280030229EA90E6A07480F00229EAEE603590E6A2
:20288800B9E0702F7896E2FE7897E225E0FC420690E740EEF090E741E4F090E6B504F09000
:2028A800E68AE4F090E68B7402F090E6A07480F00229EAED602890E6B9E0702290E740E4A5
:2028C800F090E741F090E6B504F090E68AE4F090E68B7402F090E6A07480F00229EABF022E
:2028E80002800302299590E6B9E0FEBE03028008BE0102800302299590E6BAE0FDA3E0FEA1
:202908004D60030229EA90E6BCE0F582122714AD82AE83ED4E70030229EA90E6B9E0FCBC2A
:2029280003188D828E83E0FC4304018D828E83ECF090E6A07480F00229EA90E6BCE0F5829C
:20294800C006C00512304BE582D005D00670030229EA8D828E83E0FC5304FE8D828E83EC60
:20296800F090E6BCE0FDA3E08D0453040F530580E4C423CDC423541F6DCD541FCD6DCDFE5A
:2029880090E683ED4CF0E043E020F08055BF824C90E6B9E0704690E6BCE0F582122714AE4F
:2029A80082AF83EE4F603B8E828F83E0FE5306017F00EE4FB40100B3E433FF90E740F090B8
:2029C800E741E4F090E6B504F090E68AE4F090E68B7402F090E6A07480F0800690E6B812D9
:2029E80004D35391EF90E65D7401F0D086D0D0D000D001D002D003D004D005D006D007D08B
:202A080083D082D0F0D0E0D02032AE82AF83789DE2B4012C789EE270278E828F83E493FCE9
:202A2800A3E493FD7872ECF208EDF28C828D83E4937874F208E4F290E0001223BA022C9B4F
:202A4800789DE2B4063C789EE270378E828F83A3A3E493FCA3E493FD4C700790E6A07401A2
:202A6800F0228C028D037872EAF208EBF28C828D83E4937874F208E4F290E0001223BA02C1
:202A88002C9B789DE2B402028003022BB98E828F83A3A3A3A3E493FD789EC3E29D40030290
:202AA8002BB98E828F83A3A3A3A3A3E493FCA3E493FD789EE275F002A42CF582ED35F0F5A2
:202AC80083E493FCA3E493FD74092CFAE43DFB789FEAF208EBF2087480F28C028D03787254
:202AE800EAF208EBF28C828D83E4937874F208E4F290E000C005C0041223BAD004D0058C9F
:202B0800828D83E4932400FCE434E0FD789FE2F51808E2F51908E2F51A8C1B8D1C85188229
:202B2800851983851AF0123132FAA3123132FB7872EAF208EBF28A828B83E4937874F20839
:202B4800E4F2851B82851C83C005C0041223BAD004D005851882851983851AF0123132FAF2
:202B6800A3123132FB8A828B83E4932CFCE43DFD74022518F518E43519F5198518828519A6
:202B880083851AF0123132FAA31231324A708A90E002E0FAA3E0FB4A6003022C9BECC394CD
:202BA80000FCED94E0FD90E002ECF0EDA3F0022C9B789DE2B4030474018001E4FD60227899
:202BC8009EE2701D78727431F2087433F2903331E4937874F208E4F290E0001223BA022C0A
:202BE8009BED7003022C94789EE2FC7D0024FFFAED34FFFB74072EF582E43FF583C006C026
:202C080007E493FF7E00C3EA9FEB64808EF063F08095F0D007D006507374082EF582E43F0C
:202C2800F583E493FEA3E493FF1CBCFF011DEC2CFCED33FDEC2EF582ED3FF583E493FEA313
:202C4800E493FF90E0007402F090E00104F074012401FCE434E0FD8E828F83E493FB603309
:202C68000EBE00010F8C828D83EBF074012CFAE43DFB8A828B83E4F0042AFCE43BFD90E01C
:202C880000E0FB0B0B90E000EBF080CB90E6A07401F0227E007FE090E6B57401F090E6B372
:202CA800EFF090E6B4EEF090E6A07480F022AE82AF83A3A3A3A3A3E493FCA3E493FD740476
:202CC8002EFEE43FFF78A4E4F28E828F83E493FA78A4C3E29A400122C006C00778A4E2755B
:202CE800F002A42CF582ED35F0F583E493FBA3E493FA74092BFEE43AFF78A5EEF208EFF2DA
:202D0800087480F27F008B828A83A3A3A3A3A3E493FE7898E2B506028007D007D006022E6D
:202D280021D007D00678A5E2F52D08E2F52E08E2F52FC004C005852D82852E83852FF012D8
:202D48003132FAA3123132FD8A828D83A3E493F5307404B530028006D005D0048047D00574
:202D6800D004852D82852E83852FF0123132F531A3123132F532853182853283A3A3E49360
:202D8800FA78A2E2B50214853182853283A3A3A3E493FA78A3E2B5020280047A0080027AEE
:202DA800018A0780517405B5304CEF6049C004C005852D82852E83852FF0123132FAA312AB
:202DC8003132FD8A828D83A3A3E493FD740F5DFC530580E423CDC423541F6DCD541FCD6DEC
:202DE800CD30E40244E0FA90E683ED4CF0E043E020F0D005D0047402252DF52DE4352EF5C6
:202E08002E852D82852E83852FF0123132FAA3123132FB4A6003022D3A78A4E22401F202BF
:022E28002CD1AB
:043331000403090484
:012E2A003275
:200076007900E94400601B7A0090333578BF75923EE493F2A308B800020592D9F4DAF275E8
:0200960092FFD7
:012E2B003274
:012E2C003273
:0301000002277261
:0301040002312F96
:0301080002304979
:03010C0002312B92
:0301100002313188
:0301140002315560
:030118000230466C
:03011C000201B825
:03012000020F8942
:03012400020F8C3B
:0301280002305A48
:03012C0002315449
:03013000020F8F2C
:03013400020F9225
:03013800020F951E
:03013C00020F9817
:0301400002305733
:030144000201B8FD
:0301480002314E33
:03014C0002314F2E
:0301500002315029
:0301540002315124
:030158000231521F
:03015C000231531A
:0301600002313039
:030164000201B8DD
:030168000201B8D9
:03016C000201B8D5
:0301700002305901
:0301740002305BFB
:0301780002307AD8
:03017C0002307CD2
:0301800002305CEE
:0301840002307BCB
:0301880002307DC5
:03018C0002312C11
:03019000022FC17A
:03019400023047EF
:0301980002304AE8
:03019C00023056D8
:0301A000023045E5
:0301A400023048DE
:0301A800023055CD
:0301AC00023058C6
:0301B000022E73A9
:0301B40002315ABB
:0101B8003214
:092E2D000000000000000000227A
:1B2E360020F71130F6138883A88220F509F6A8837583002280FEF280F5F0229B
:012E5100324E
:202E5200AA83AB828BF0903EA9E0A4F8A9F08AF0E0A429F98BF0A3E0A429F583888222224E
:012E7200322D
:012E7300322C
:202E7400AF82AE83ADF0FC78AFEFF208EEF208EDF208ECF278AFE2FF78ADE28FF0A4FFADA8
:202E9400F078B5EFF208EDF278AFE2FF78ABE28FF0A4FFADF078B3EFF208EDF278B6E2FF6B
:202EB40078B2E2FE78ABE28EF0A42FFF78B6F278B1E2FE78ACE28EF0A42F78B6F278B5E2F0
:202ED400FE08E2FF78B1E2FD78ABE28DF0A4ABF02EFEEB3FFF78B5EEF208EFF278B0E2FDDC
:202EF40078ACE28DF0A4ABF02EFEEB3FFF78B5EEF208EFF278B0E2FF78ADE28FF0A478B254
:202F1400F278B0E2FF78ABE28FF0A4FFADF078B0EFF208EDF278AFE2FF78AEE28FF0A47843
:202F3400AEF278AFE2FF78ACE28FF0A4FFADF078ACEFF208EDF278ABE4F278AFF278B3E205
:202F5400F52D08E2F52E08E2F52F08E2F53078AFE2FA08E2FB08E2FE08E2FFEA252DF52DFA
:202F7400EB352EF52EEE352FF52FEF3530F53078B3E52DF208E52EF208E52FF208E530F284
:202F940078B3E208E208E208E278ABE2FC08E2FD08E2FE08E2FFEC252DFCED352EFDEE35EF
:0C2FB4002FFEEF35308C828D838EF022D2
:012FC00032DE
:012FC10032DD
:202FC200AE82AF837D007C0078B8E2235401FB703578B7E225E0F208E233F278B7C3E2F58A
:202FE200F0EE95F008E2F5F0EF95F0501478B7E2F5F008E2C313C5F01318F2C5F008F2800E
:20300200050C8C0580C278B7C3E2F5F0EE95F008E2F5F0EF95F0400E78B7D3E29EF4B3FEE6
:20302200B308E29FF4FF78B7E2F5F008E2C313C5F01318F2C5F008F28D041DEC70C88E8246
:033042008F832257
:013045003258
:20009E0078B9E84400600A790075923EE4F309D8FC7806E84400600C7901903EB9E4F0A37B
:0400BE00D8FCD9FA97
:013046003257
:013047003256
:013048003255
:013049003254
:01304A003253
:0A304B0090E6A07480F07582012267
:013055003248
:013056003247
:013057003246
:013058003245
:013059003244
:01305A003243
:01305B003242
:01305C003241
:1D305D0090E7407898E2F090E6B57401F090E68AE4F090E68B04F090E6A003F02239
:01307A003223
:01307B003222
:01307C003221
:01307D003220
:20307E00E583700BE58224FA400122B4001122E5826003D5E0FD0075E0FED583F674F9D521
:20309E00E0FD22C007C006C001C000AE82AF83EE2EF8EF33F9EE28FEEF39FF90E600E0F8EB
:2030BE00794C20E416C3EF13CE13CEFF795AE820E309C3EF13CE13CEFF7963E58124FAF80E
:2030DE00E926C313C313F9C3EE99F582EF9400F583D000D001D006D00750012202307E747D
:2030FE0011C0E01230A1158122C007C006AE82AF837411C0E0EE4F600D1EBEFF011F90031A
:0D311E00E81230A180EF1581D006D0072205
:01312B003271
:01312C003270
:01312D00326F
:01312E00326E
:01312F00326D
:01313000326C
:01313100326B
:0D006900758132123156E582600302006697
:1C31320020F71430F6148883A88220F507E6A88375830022E280F7E49322E022AC
:01314E00324E
:01314F00324D
:01315000324C
:01315100324B
:01315200324A
:013153003249
:013154003248
:013155003247
:04315600758200225C
:01315A003242
:00000001FF
