:06000000020069020EF08F
:03000B00022CC301
:03001300022C9C20
:03001B00022CE4D0
:03002300022F9F0A
:03002B00020F328F
:03003300022E3268
:03003B00022FA0F1
:03004300020100B7
:03004B000224E5A7
:03005300020100A7
:03005B00022C9DD7
:03006300022C9ECE
:0300C200020066D3
:03006600020F671F
:2001BE00AF82BF033B7800E2B4EE35786A747EF2087430F290307EE493786CF208E4F29065
:2001DE00E00012222C7D007EE090E6B57401F090E6B3EEF090E6B4EDF090E6A07480F0222C
:2001FE007895EFF278007996E2F390307402288478707401F208E4F2087460F2786EE4F2FE
:20021E0008F2787304F208E4F2787504F275825112225DE58260407801E2B4FF0280387804
:20023E0001E2B4C201227801E2B4C02B787074C0F208743FF208E4F2786E740CF208E4F25B
:20025E0078737429F208E4F2787504F275825112225DE582600122903FC074F9F0786A7440
:20027E00B8F2087430F2786C7410F208E4F2903FC112222C903FD1E4F0A3F0A3F0A3F022A1
:20029E00903FC0E0FFBF4102800ABF4202800DBF431A8010903FC07410F08011903FC07473
:2002BE0020F08009903FC07430F0800122903EB17401F0787A74B1F208743EF208E4F278D2
:2002DE00787407F208E4F2787D04F208E4F2787F04F278807408F2788174FFF27582511269
:2002FE0022FA903EB174C0F0787A74B1F208743EF208E4F27878F208F2787D04F208E4F2E9
:20031E00787F04F278807408F2788174FFF27582511222FA903FC0E0903EB1F0787A74B1A3
:20033E00F208743EF208E4F278787405F208E4F2787D04F208E4F2787F04F278807408F2CE
:20035E00788174FFF27582511222FA787A74B1F208743EF208E4F27878740CF208E4F27860
:20037E007D04F208E4F2787F04F278807408F2788174FFF27582510222FA780274CDF20842
:20039E00742FF2902FDDE493FD1DC2D575F002ED30E704B2D5F404A430D50AF42401C5F077
:2003BE00F43400C5F02464F582743035F0F583E493FCA3E493FD7804ECF208EDF27802E2DB
:2003DE00240CFA08E23400FB8A828B83E0FEA3E0FF903FC0E07C004206EC42078A828B83C0
:2003FE00EEF0EFA3F0903FC0E0C4540F2440FF7804E2F58208E2F583EFF07804E22401FEEF
:20041E0008E23400FF903FC0E0FD740F5D24308E828F83F07804E22403FE08E23400FF8EC1
:20043E00828F83786A74C1F208743FF2786C7410F208E4F212222C903FC0E0FFBFF92878F6
:20045E0002E22408F58208E23400F58374B4F07404A3F07802E2240AF58208E23400F583A7
:20047E007413F07486A3F0227806E2540524FFE433F5821211467806E2035401F582021123
:20049E002EAF827806E24FF2020486AF827806E25207EF24FFE433F58222AF827806E25F16
:2004BE00600FEFF4FF7806E25FF212048675820122758200227807E2600790E6A07401F00A
:2004DE002278077401F222AF82BF00028026BF01028005BF021A800C758200C007121DC4DD
:2004FE00D0078010758201C007121DC4D0078004758200227890EFF27808E4F27809F27827
:20051E009A14F2789BF2903074122B2875820122AF827890E2B4010280087890E2B4020A61
:20053E0080047E0080087E01800475820022780AE2B4011B8F058DF005F0785474018002FA
:20055E0025E0D5F0FBF28E82C007121E23D007EF2408F8790AE3F2789AEFF2780A799BE2EF
:20057E00F3903074122B2875820122E5822408F9E390E740F090E6B57401F090E68AE4F03D
:20059E0090E68B04F090E6A003F02290E6B8E0FFE4BF400104FE601390E6B9E0FDBDB00B33
:2005BE007807E4F290E6A07480F022E4BFC00104FD7006EE70030207B290E6B9E0FCE4BC0A
:2005DE00A90104FB7008BC100280030207B2EF235401FE7F0090E6BA780DE0F2A3E008F2E8
:2005FE0090E6BE780FE0F2A3E008F27C00EB60057F5102069C90E6BCE0FAA3E0FBC37403CF
:20061E009AE49B4079EA2A900629738006800A800E80127F517C0680657F527C08805F7F8A
:20063E00537C088059780DE2FA08E2FBC3E49A74109B404AC002C003780FE2FA08E2FBC32C
:20065E00E49A74109BD003D0024033C002C003780D790FE3C5F0E225F0FA09E3C5F008E221
:20067E0035F0FBC3E49A74109BD003D002400F7F517C0674702BFB780DEAF208EBF27807C7
:20069E00E4F2EF700790E6A07401F022780FE2F5F008E245F0700122780FE2FA08E2FBC358
:2006BE00EA9440EB940040047A407B00EE605190E6A0E020E1F978707440F20874E7F208EC
:2006DE00E4F27873EAF208E4F2780D796EE2F308E209F378757401F28F8212225DE582708D
:2006FE000790E6A07401F02290E6B57401F090E68AE4F090E68BEAF090E6A07480F0805728
:20071E0090E6B57401F090E68AE4F090E68BF090E6A07480F090E6A0E020E1F9787A7440D6
:20073E00F20874E7F208E4F2787DEAF208E4F2780D7978E2F308E209F3787F7401F2788040
:20075E00ECF2788174FFF28F821222FAE582700790E6A07401F022C0048A08750900780F2A
:20077E00E2F50A08E2F50BE50AC39508FBE50B9509FC780FEBF208ECF2780DE2FA08E2FC2B
:20079E00E5082AFAE5093CFC780DEAF208ECF2D0040206AAED7006EE700302085590E6B9E5
:2007BE00E0FCBC13028003020855EF235401FC90E6BAE0FF90E6BEE0FAA3E0FB7807E4F239
:2007DE008F82C004C003C002121261E582D002D003D004605BEC603290E6A0E020E1F98A89
:2007FE0004781AECF290E740C004121290E582D004603D90E6B57401F090E68AE4F090E686
:20081E008BECF090E6A07480F02290E6B57401F090E68AE4F090E68BF090E6A07480F09058
:20083E00E6A0E020E1F9781BEAF290E7400212C190E6A07401F022ED604390E6B9E0FCBC4B
:20085E00123B90E6BEE0FBA3E0FCBB0130BC002D7807E4F290E6A0E020E1F990E740780650
:20087E00E2F090E6B57401F090E68AE4F090E68B04F090E6A003F07582010204B8EE70030F
:20089E0002099590E6B9E0FCBC1102800302099590E6BCE0FBA3E0FC4B6027C007780BE213
:2008BE00FA08E2FF74012AF50AE43FF50B8B028C07EAB50A06EFB50B028005D007020995FA
:2008DE00D0078B078C0690E6BEE0FAA3E0FD7807E4F2EF4E702E758202C007C006C005C036
:2008FE00021204B87888E4F278897410F208E4F2903FD575F0001224E6121152D002D0059E
:20091E00D006D007EA4D60678A038D04C3EB9440EC940040047B407C0090E6B57401F09053
:20093E00E68AE4F090E68BF090E6A07480F090E6A0E020E1F97818EBF290E740C007C006C9
:20095E00C005C003C0021211C7D002D003D005D006D0078B0A750B008A088D09AB0AAC0B75
:20097E00E508C39BFBE5099CFC8B028C058095780BEFF208EEF222ED7006EE7003020A4AD2
:20099E0090E6B9E0FCBC18028003020A4A90E6BEE0FBA3E0FCBB1005BC00028003020A4A8A
:2009BE00EF235401FC7807E4F2EC603690E6A0E020E1F9786A74D5F208743FF2786C7410BD
:2009DE00F208E4F290E74012222C90E6B57401F090E68AE4F090E68B7410F090E6A074802F
:2009FE00F02212121B121258E582603975820212049F90E6B57401F090E68AE4F090E68BF9
:200A1E00F090E6A07480F090E6A0E020E1F9786A7440F20874E7F2786C7410F208E4F29039
:200A3E003FD502222C90E6A07401F022ED7006EE7003020AF390E6B9E0FCBC140280030272
:200A5E000AF390E6BEE0FBA3E0FCBB0205BC00028003020AF3EF235401FC90E6BCE0FB7803
:200A7E0007E4F2EC603890E6A0E020E1F978217440F20874E7F28B82121457E5827007907B
:200A9E00E6A07401F02290E6B57401F090E68AE4F090E68B7402F090E6A07480F02290E6CE
:200ABE00B57401F090E68AE4F090E68B7402F090E6A07480F090E6A0E020E1F9781D744090
:200ADE00F20874E7F28B82121352E582700675820102049F22ED607290E6B9E0FCBC156A8C
:200AFE0090E6BEE0FBA3E0FCBB025FBC005C90E6BCE0FC7807E4F290E6A0E020E1F9903FF4
:200B1E00C0E0FBBB321278447440F20874E7F28C82121B77AB828010782A7440F20874E74C
:200B3E00F28C821216CAAB82EB700790E6A07401F02290E6B57401F090E68AE4F090E68B14
:200B5E007402F090E6A07480F022ED7006EE7003020C2990E6B9E0FCBC16028003020C2961
:200B7E0090E6BEE0FBA3E0FCBB0405BC00028003020C29EF235401FC90E6BCE0FB7807E4BA
:200B9E00F2EC604490E6A0E020E1F978387440F20874E7F2783A74022440F2E434E708F2A3
:200BBE008B821218D5E582700790E6A07401F02290E6B57401F090E68AE4F090E68B7404B3
:200BDE00F090E6A07480F02290E6B57401F090E68AE4F090E68B7404F090E6A07480F09094
:200BFE00E6A0E020E1F9782E7440F20874E7F2783074022440F2E434E708F28B8212173AF9
:200C1E00E582700675820102049F22ED604790E6B9E0FCBC173F90E6BEE0FBA3E0FCBB011F
:200C3E0034BC00317807E4F290E6A0E020E1F9783F7401F290E7401219EA90E6B57401F0B6
:200C5E0090E68AE4F090E68B04F090E6A003F07582040204B8EE602F90E6B9E0FCBC192767
:200C7E0090E6BEE0FBA3E0FC4B701C90E6BAE0FBA3E04B24FFE433F5827807E4F2121301EC
:200C9E0090E6A07480F022ED7006EE7003020D8890E6B9E0FCBC1A028003020D8890E6BE8E
:200CBE00E0FBA3E0FCBB0205BC00028003020D88EF235401FC90E6BCE0FB7807E4F2EC6011
:200CDE003890E6A0E020E1F978277440F20874E7F28B821215FAE582700790E6A07401F0AD
:200CFE002290E6B57401F090E68AE4F090E68B7402F090E6A07480F02290E6B57401F090AD
:200D1E00E68AE4F090E68B7402F090E6A07480F090E6A0E020E1F978257440F20874E7F288
:200D3E008B82121515E582700675820102049F787A74E5F208743FF208E4F278787431F283
:200D5E0008E4F2787D7404F208E4F2787F04F278807408F2788174FFF27582511222FAE54E
:200D7E0082700675820102049F22ED7006EE7003020E5690E6B9E0FEBE1B028003020E56A3
:200D9E0090E6BEE0FCA3E0FEBC0205BE00028003020E56EF235401FF90E6BCE0FE7807E45F
:200DBE00F2EF604E90E6A0E020E1F9903FC0E0FFBF3000401E78507440F20874E7F278524E
:200DDE0074012440F2E434E708F28E82121D05E582700790E6A07401F02290E6B57401F0E2
:200DFE0090E68AE4F090E68B7402F090E6A07480F02290E6B57401F090E68AE4F090E68B19
:200E1E007402F090E6A07480F090E6A0E020E1F9903FC0E0FFBF3000401790E740784EE053
:200E3E00F290E741784FE0F28E82121CC8E582700675820102049F22ED603B90E6B9E0FF19
:200E5E00BF0F3390E6BEE0FEA3E0FFBE0128BF00257807E4F290E6A0E020E1F990E74074A4
:200E7E0001F090E6B5F090E68AE4F090E68B04F090E6A003F022ED605290E6B9E0FFBFC028
:200E9E004A90E6BCE0FF7807E4F2BF0437786A7490F2087430F2903090786CE493F2A3E4F0
:200EBE009308F290E00012222C7E007FE090E6B57401F090E6B3EFF090E6B4EEF090E6A024
:200EDE007480F02290E6A07401F02290E6A07401F022C0E0C000C0D075D00078117401F28F
:200EFE00D0D0D000D0E032903EB3E4F0A3F07811F275820412049F783FE4F2903EB2121937
:200F1E00EA903EB2E0FF781D74B3F208743EF28F8202135253B0EFC2CAC2CF32C0E0C08275
:200F3E00C08343B010D2CA5391EF90E65F74F3F0D083D082D0E032020F3A020F3A020F3A4A
:200F5E00020F3A020F3A020F3A90E6007412F090E67A7401F012020E12029E1203981211AD
:200F7E00221212F2903FC0E0FFBF320F121B13E582700B75820112049F8003121651121DB3
:200F9E0057122C9F90E611E4F0122C9F90E610E4F075C801D2AD90E65EE043E0F3F0D2A87C
:200FBE00903FD1E0FCA3E0FDA3E0FEA3E0FFEC4D4E4F70030210FD903FD17812E0F2A3E03D
:200FDE0008F2A3E008F2A3E008F27D527816E4F208F2758201C00512113A121152D00578F6
:200FFE0012E2F5F008E242F008E242F008E245F070030210D47C807812C3E2948008E2948D
:20101E000008E2940008E2940050047812E2FC78707400F20874E0F208E4F27873ECF208AF
:20103E00E4F27816796EE2F308E209F378757401F28D8212225DE582700875820112049F0C
:20105E0080747818ECF290E000C005C0041211C7D004D0058C027B007E007F007812E2C34F
:20107E009AF208E29BF208E29EF208E29FF28C037F007816E2FA08E2FEEB2AFAEF3EFE7848
:20109E0016EAF208EEF27816E2F5F008E245F06003020FFD8D03EB04FDBD54028003020F50
:2010BE00FD7D517816E2FA08E22470FB7816EAF208EBF2020FFD7812E2F5F008E242F00892
:2010DE00E242F008E245F0701012121B121258E582700675820112049F75820012113A1294
:2010FE001258E582600675820212049F75820112253A7807E260031205A97811E260F31230
:04111E000F0580EE4B
:202FCD001201000200000040B720B19D0001010203020A060002000000080000090400003A
:202FED0000FFFFFF060904000102FFFFFF070904000102FFFFFF080904010000FFFFFF0687
:20300D000904010102FFFFFF070705020200020007050402000200070586020002000705C6
:20302D0088020002000902000002010480FAE92FF22F1630243004300D301D302B3000007F
:20304D000902000001020580FAE92FFB2F16302430000032304D30C930DD30F03004314080
:20306D0031603169317E31CD2FDF2F02603008643012034D00530046005400310030003020
:20308D0000C00028000000000104000100000000000000000157494E55534200000000005C
:2030AD000000000000000000000000393939393939393939393939393939390077686974B7
:2030CD0065717561726B20726573656172636800476C6173676F7720446562756720546F2F
:2030ED006F6C0058582D585858585858585858585858585858580050697065205020617498
:20310D00207B327835313242204550324F55542F455036494E7D2C2051206174207B3278BF
:20312D0035313242204550344F55542F455038494E7D00506970652050206174207B34787D
:20314D0035313242204550324F55542F455036494E7D0044697361626C656400446F7562F9
:20316D006C652D6275666665726564203531324200517561642D62756666657265642035B7
:04318D003132420099
:20112200740445B054C7F5B043B53C22E582600443B0082253B0F722E582600443B0102236
:1011420053B0EF22E582600443B0202253B0DF2285
:20115200122C9F90E601E053E0FCF0903FC0E0FFBF10028014BF2002800FBF30028012BFA5
:201172003102800DBF3210800843B50253B0FD800643B2025380FD900001122F6F53B2F790
:2011920043B31C4390105390F7903FC0E0FFBF10028014BF2002800FBF3002800FBF3102B9
:2011B200800ABF320A800543B00280034380029004B0022F6F75AF0385829B85839A90E611
:2011D2007B7818E2F8E0A2E7C2949292D294A2E6C2949292D294A2E5C2949292D294A2E47A
:2011F200C2949292D294A2E3C2949292D294A2E2C2949292D294A2E1C2949292D294A2E04F
:20121200C2949292D294D8BD227431C29400D294D5E0F853B3E3903FC0E0FFBF100280145B
:20123200BF2002800FBF30028013BF3102800EBF3213800990E601E043E023F02290E60175
:20125200E043E063F022E580A2E3E433F58222E5827819F2758210122018E5826019785E79
:201272007401F208E4F2903E1975F06012204CE58260047582012212203075820022AE825D
:20129200AF83758211122018E582601C7D00781A7963E2F309E4F38E828F838DF01220D391
:2012B200E58260047582012212203075820022AE82AF837D00781B795EE2F309E4F38E82AE
:2012D2008F838DF012204CE582600E122030E5827003F582227582012212203075820022B0
:2012F20074BE55B04480F5B043B5C153B07F22E582600453B07F2243B08022AF827E008F9D
:2013120005BD0102800ABF02028009BD031180087E0C800B7E0D8007781CE270027E48EE04
:201332007003F58222EE2EFE781CE24EF582122018E582700712203075820022758201227D
:20135200AF827E00781DE2F58208E2F583E0FCA3E0FDEF30E0027E01EF30E103430640EF25
:2013720030E013903FE5E0FAA3E0FBC3EA9CEB9D500475820022EF30E113903FE7E0FAA3A8
:20139200E0FBC3EA9CEB9D500475820022EC4D7008EEF452B075820122C3EC9472ED940637
:2013B2004008747C9C74159D500475820022EC248EFCED34F9FD78A1ECF2E2F5F0EDC4C5CF
:2013D200F0C4540F65F0C5F0540FC5F065F0F2C5F008F290010DC007C006122CC4AC82ADC4
:2013F20083D006D007EDC4CCC4540F6CCC540FCC6CCCFD74E0C39CFC740F9DFB781FEBF22D
:201412007820ECF2781CE4F28F82C00612130DE582D0067003F58222785E7402F208E4F26C
:20143200903E1F75F06012204CE582700712203075820022122030E5827003F58222EE420C
:20145200B075820122AF82BF01028005BF020A80047E0180087E40800475820022EE55B094
:2014720070117821E2F58208E2F583E4F0A3F075820122781C7401F28F8212130DE58270EF
:2014920003F5822278637402F208E4F2903E2375F0601220D3E5827003F582227823E2FED4
:2014B2007F007824E27C004207EC42067821E2FC08E2FDEEC4CFC4540F6FCF540FCF6FCF70
:2014D200FE74FFC39FFFE49EFE78A1EFF208EEF2900098C005C004122CC4785B740AF208C8
:2014F200E4F2121F8BE5828583F0D004D0052472FE740635F0FF8C828D83EEF0EFA3F0751B
:20151200820122AF827825E2FD08E2FE8D828E83E0FBA3E0FC4B601D8B0C8C0DC3E50C94C5
:2015320072E50D9406400A747C950C7415950D500475820022750C91750D31850C82850DBE
:2015520083E493FA70030215F6EA5F70030215E8782174B5F208743EF28A82C007C006C091
:2015720005C004C003121457E582D003D004D005D006D0077003F58222C007903EB5E0FA90
:20159200A3E0FFC3EB9AEC9FD0075030850C82850D83E493FA781DEDF208EEF28A82C007C5
:2015B200C006C005C004C003121352E582D003D004D005D006D0077003F58222850C82855C
:2015D2000D83A3E49325E0FA24E5F582E4343FF583EBF0ECA3F07402250CF50CE4350DF5E4
:2015F2000D02154D75820122AF827E917D318E038D048B828C83E493FA6040EFB5022F78C4
:2016120027E2F52608E2F5278E828D83A3E49325E024E5F582E4343FF583E0FDA3E0FE851D
:1F1632002682852783EDF0EEA3F07582012274022BFBE43CFC8B068C0580B77582002220
:0631910001000201000034
:2016510090E670E043E001F05388FE22A982E3FE7F0009E37C004207EC4206EEC4CFC4549B
:201671000F6FCF540FCF6FCFFE78A1EFF208EEF2900103122CC4785B740AF208E4F2021FE4
:201691008BAE82AF8378A1EEF208EFF290000A122CC4785B7403F2087401F2121F8BAE8237
:2016B100E583C454F0CEC4CE6ECE54F0CE6EFF7829E2F9EFF309EEF322AF827D977E318DA3
:2016D100038E048B828C83E493FA6059EFB502488D828E83A3E493FA7856742CF27855E4EB
:2016F100F278577402F28A82121EDDE5827003F58222782AE2F50E08E2F50F75822C121664
:201711005D858210858311850E82850F83E510F0E511A3F07582012274022BFBE43CFC8B34
:20173100058C06809E75820022AF827832E4F27833F27834740FF27835F4F278367403F2B1
:201751007837E4F2782EE2F58208E2F583E0FDA3E0FE8D038E04C3747C9B74159C4023C07C
:20177100077830E2FB08E2FC8B828C83E0FAA3E0FF8A128F13C3747C951274159513D007CE
:20179100500475820022ED4E700C747CB512077415B51302803778297432F28D828E83C033
:2017B10007C004C003121692D003D0048B828C83E0FBA3E0FC78297434F28B828C83121634
:2017D10092D00778377414F2783774D4F27D977E318D828E83E493FC70030218D1EC5F700E
:2017F100030218C774012DFBE43EFC8B828C83E493FA78597432F278587403F2785A14F232
:201811008A82C007C006C005C004C003121F35E582D003D004D005D006D0077003F58222D0
:201831008B828C83E493FA78597434F278587404F2785A03F28A82C007C006C005C004C0BC
:2018510003121F35E582D003D004D005D006D0077003F582228B828C83E493FA785974366A
:20187100F278587401F2785AF28A82C007C006C005C004C003121F35E582D003D004D0053C
:20189100D006D0077003F582228B828C83E493FB78597437F278587402F2785A14F28B8265
:2018B100C007C006C005121F35E582D005D006D0077003F5822274022DFDE43EFE0217E2AF
:2018D10075820122AF827D977E318D038E048B828C83E493FA70030219DAEFB502028003A7
:2018F1000219CC74012DF514E43EF515851482851583E493FD7856743EF278557402F2784E
:201911005714F28D82121EDDE5827003F58222783EE270217838E2F58208E2F583E4F0A3BF
:20193100F0783AE2F58208E2F583747CF07415A3F075820122851482851583E493FD7856A9
:20195100743CF278557403F2785714F28D82121EDDE5827003F582227838E2F51608E2F5BE
:201971001775823C12165DAA82AE83851682851783EAF0EEA3F0851482851583E493FE786E
:2019910056743CF278557404F2785703F28E82121EDDE5827003F58222783AE2F51608E22A
:2019B100F51775823C12165DAA82AE83851682851783EAF0EEA3F07582012274022BFBE4C4
:2019D1003CFC8B058C060218DF75820022E5805401B40100E433F58222AF83E5827840F228
:2019F10008EFF27840E2F58208E2F583E4F07C977D318C828D83E4937003021B0F74012C10
:201A1100FAE43DFB8A828B83E493FF78567442F278557401F27857F28F82C005C004C00347
:201A3100C002121EDDE582D002D003D004D0057003F582227842E27003021B057843E4F243
:201A51007840E2F58208E2F583E0FF8C828D83E49342077840E2F58208E2F583EFF08A82E7
:201A71008B83E493FF78567443F278557402F2785714F28F82C005C004C003C002121EDD24
:201A9100E582D002D003D004D0057003F58222783FE260308A828B83E493FA78567442F24A
:201AB10078557401F27857F28A82C005C004121EDDE582D004D0057003F582227843E24481
:201AD10004F280067843E254FBF28C828D83A3E493FF78597443F278587402F2785A14F2DA
:201AF1008F82C005C004121F35E582D004D0057003F5822274022CFCE43DFD021A037582E7
:021B11000122AF
:0631970001540255000086
:201B130075820122E582F904F8E2FF7E007D008D1B8E1A8F198E18E3FAE4FBFEFFE51842CA
:201B330002E5194203E51A4206E51B420778A3EAF208EBF208EEF208EFF2900005E4F5F0B2
:201B5300122CE6AC82AD83AEF0C313FFEE13FEED13FDEC13FCEFC313EE13ED13FDEC13F5CF
:201B7300828D8322AF827D9D7E318D038E048B828C83E493FA605AEFB502498D828E83A389
:201B9300E493FA78567446F278557488F278577402F28A82121EDDE5827003F5822278440D
:201BB300E2F51C08E2F51D758246121B1785821E85831F851C82851D83E51EF0E51FA3F084
:151BD3007582012274022BFBE43CFC8B058C06809D75820022D3
:06319D00014002410000A8
:201BE800AF827E008F05BD01028005BF020880047E2080027E21EE7003F58222EE2EFE78BD
:201C080048E24EF582122018E5827003F5822275820122AF827848E4F28F82121BE8E582A2
:201C28006038785E7401F208E4F2903E4975F06012204CE5826023785E7401F208E4F290FA
:201C48003E4A75F06012204CE582600E122030E5827003F582227582012212203075820094
:201C680022AF827848E4F28F82C007121BE8E582D0076045785E7401F208E4F2903E4B75FA
:201C8800F06012204CE582603078487401F28F82121BE8E5826022784CE2FD08E2FE7F0037
:201CA80078637401F208E4F28D828E838FF01220D3E58260047582012212203075820022F8
:201CC800AF8278497401F2784F794AE2F38F82C007121C1BE582D0077003F58222784EE231
:201CE800F4F278497403F2784E794AE2F38F82121C1BE5827003F5822275820122AF8278DE
:201D08004B7401F27852794CE2F308E209F38F82C007121C69E582D0077003F58222784B43
:201D28007403F27850794CE2F308E209F38F82121C69E5827003F582227850E2FE08E2FF3E
:0F1D48008E828F83E0F48E828F83F0758201226A
:201D5700122C9F90E60B7403F0122C9F90E6017480F0122C9F90E6047480F0122C9F90E6E1
:201D770009E4F0122C9F90E6027498F0122C9F90E60374FEF0122C9F90E670E043E080F030
:201D9700122C9F90E618E053E0FEF0122C9F90E619E053E0FEF0122C9F90E61AE053E0FED5
:201DB700F0122C9F90E61BE053E0FEF022E582FF60067E007D0080047E027D80122C9F9056
:201DD700E6047480F0122C9F90E61274A04EF0122C9F90E61374204DF0122C9F90E6147455
:201DF700E04EF0122C9F90E61574604DF0EF60067D017E0080047D037E007854EDF28F82A6
:201E1700121E23122C9F90E604E4F022AF827854E25401605F122C9F90E618E4F0122C9FFC
:201E370090E604E043E002F0122C9F90E6497482F0122C9F90E6497482F0EF6012122C9FDA
:201E570090E6497482F0122C9F90E6497482F0122C9F90E6187410F0122C9F90E61AE4F024
:201E7700122C9F90E604E043E006F0122C9F90E61A7404F07854E25402604A122C9F90E625
:201E970019E4F0122C9F90E604E043E004F0122C9F90E6497484F0122C9F90E6497484F0E8
:201EB700122C9F90E6197410F0122C9F90E61BE4F0122C9F90E604E043E008F0122C9F902A
:061ED700E61B7404F0227A
:201EDD00E5822582FFF582122018E5826043785E7401F208E4F2903E5575F06012204CE5A7
:201EFD0082602E74014FF582122018E58260227856E2FD7E007F6078577963E2F309E4F3DD
:201F1D008D828E838FF01220D3E58260047582012212203075820022E582FF25E0F58212AC
:201F3D002018E5826041785E7401F208E4F2903E5875F06012204CE582602C7859E2FD7E9F
:201F5D00007F60785A795EE2F309E4F38D828E838FF012204CE582600E122030E5827003F9
:0E1F7D00F58222758201221220307582002228
:201F8B00AE82AF837C007D007B10EF235401FAEE2EFEEF33FFEC2CFCED33FDEA60034304EF
:201FAB0001785BC3E2F5F0EC95F008E2F5F0ED95F04011785BD3E29CF4B3FCB308E29DF4C0
:0E1FCB00FD430601EB14FB70C18E828F832252
:201FD900C007C000AF8290E678E020E00E785DE260F4785DE4F2758200801F90E678E0300A
:201FF900E2057582008013EF600D90E678E0FFA2E1E433F5828003758201D000D00722C019
:2020190007AF8290E6787480F090E679EFF0758201121FD9D0072290E678E030E2047582F9
:20203900002290E6787440F090E678E020E6F975820122C007C006C004C003C002C000AFA7
:20205900F0AE83E5827860F208EEF208EFF2785EE2F5F008E245F07005758201804F7B00D1
:202079007C00785EE2B5030708E2B50402802B7860E22BFA08E23CFE08E2FF8A828E838F6C
:20209900F0122FA4FA90E679F0758201121FD9E58260070BBB00CB0C80C8785EE2B503084C
:2020B90008E2B50403D38001C3E433F582D000D002D003D004D006D00722C007C006C00552
:2020D900C004C003C002C001C000AFF0AE83E5827865F208EEF208EFF27863E2F5F008E2BA
:2020F90045F0700675820102221B7863E2FB08E2FCBB0109BC000690E6787420F090E6795F
:20211900E07B007C007868E4F208F278687963E2F5F0E3B5F00C08E2F5F009E3B5F00302A3
:2021390021F5758200121FD9E58270030222087868E2FD08E2FE74022DFDE43EFE7863E245
:20215900B5050708E2B506028002800690E6787420F07868E2FD08E2FE0DBD00010E786329
:20217900E2B5050708E2B506028002803575AF03759AE6759B7890E67B7440F0E0ACE078A8
:20219900657968E3C5F0E225F0FD09E3C5F008E235F0FE08E2FF8D828E838FF0EC122CA84C
:2021B900802578657968E3C5F0E225F0FD09E3C5F008E235F0FE08E2FF90E679E0FA8D82A8
:2021D9008E838FF0122CA87868E22401F208E23400F27868E2FB08E2FC02212490E678E0CF
:2021F90030E205758200801A90E678E020E6F97863E2B5030808E2B50403D38001C3E43300
:13221900F582D000D001D002D003D004D005D006D007227D
:20222C00AA82AB83786AE2FC08E2FD786CE2FE08E2FFEE60010FEF601775AF078A9B8B9AAB
:11224C008C9E8D9D90E67CE090E67BF0DEF6DFF422B1
:20225D00C007C006C005C001C000AF827875E26012786FE2FE7876EEF2786EE2FE7877EEE4
:20227D00F28008786EE2FE7876EEF2EF2FFFF582122018E58260557875E2FDE23395E0FEE5
:20229D000DBD00010E785EEDF208EEF2903E7675F06012204CE582603374014FF5821220BD
:2022BD0018E582602778737963E2F308E209F37870E2F58208E2F58308E2F5F01220D3E51D
:2022DD00827004F582800B7582018006122030758200D000D001D005D006D00722C007C046
:2022FD0006C005C004C003C002C001C000AF827882E4F208F2EF2FFFF582122018E582707C
:20231D00030224B57880E2FC8CF005F07B017C008006EB2BFBEC33FCD5F0F77882797DC362
:20233D00E3F5F0E295F009E3F5F008E295F040030224B5787FE260127879E2FA7884EAF203
:20235D007878E2FA7885EAF280087878E2FA7884EAF2C003C004787FE2FAE23395E0FC0AA5
:20237D00BA00010C785EEAF208ECF2903E8475F06012204CE582D004D00370030224B5C030
:20239D00077878E2F58208E2F5838B028C0778AFEAF208EFF2C007C004C003C002C001C0D1
:2023BD0000122E34AD82AE83D000D001D002D003D004D007EAC39DFAEF9EFF7886EAF20889
:2023DD00EFF2787D7982E3F5F0C3E295F0FE09E3F5F008E295F0FF7886C3E2F5F0EE95F0E5
:2023FD0008E2F5F0EF95F0D0075020787D7982E3F5F0C3E295F0C0E009E3F5F008E295F074
:20241D00C0E07887D0E0F218D0E0F2787A7982E3C5F0E225F0FA09E3C5F008E235F0FD0879
:20243D00E2FE7886795EE2F308E209F38A828D838EF012204CE582605F122030E582700494
:20245D00F58280737E007881E2600B7881C3E2F5F0EE95F0500C8F82122018E58270030E9C
:20247D0080E47881E2B50605758200804A78787986E3C5F0E225F0F209E3C5F008E235F05F
:20249D00F278827986E3C5F0E225F0F209E3C5F008E235F0F20223381220307882797DE280
:2024BD00F5F0E3B5F00C08E2F5F009E3B5F003D38001C3E433F582D000D001D002D003D068
:0824DD0004D005D006D007224F
:06009800E478FFF6D8FD3C
:0124E50032C4
:2024E600AFF0AE83E582788BF208EEF208EFF2788BE2FA08E2FB08E2FC7889E2F52608E247
:20250600F527AE26AF27152674FFB526021527EE4F60138A828B838CF07888E2122CA8A377
:14252600AA82AB8380DC788BE2F58208E2F58308E2F5F0223C
:20253A00AF82788FE4F27890F2D2E890E668E043E008F090E65CE043E001F090E65D7401D8
:20255A00F0D2AF90E680E020E10890E680E043E002F0EF600E90E680E043E008F090000A3E
:20257A00122F7990E680E053E0F7F022AF82BF00028037BF01028036BF02028039BF040213
:20259A008038BF06028037BF08028036BF80028019BF8102801CBF8202801BBF8402801AF7
:2025BA00BF86028019BF881E801890E6A02290E6A12290E6A22290E6A32290E6A42290E68C
:2025DA00A52290E6A62290000022C020C0E0C0F0C082C083C007C006C005C004C003C002DA
:2025FA00C001C000C0D075D000C08675860090E6B8E0FFE4BF800104FE601B90E6B9E0FD70
:20261A00BD061390E6BAE0FCA3E0F5827800ECF21201BE02285CEF702790E6B9E0FDBD09BF
:20263A001F90E6BAE0F5821204E5E582600990E6A07480F002285C90E6A07401F002285C8E
:20265A00EE600E90E6B9E0FDBD0806122ECF02285C8F05BD012F90E6B9E0FDBD0B2790E6A6
:20267A00BCE0FD90E6BA780AE0F28D8212052EE582600990E6A07480F002285C90E6A074F5
:20269A0001F002285CE4BF810104FD601490E6B9E0FCBC0A0C90E6BCE0F5821205890228DF
:2026BA005CEF703790E6B9E0FCBC032F90E6BAE0FBA3E0FCBB0110BC000D788F7401F290F8
:2026DA00E6A003F002285CBB0205BC0002800302285C90E6A07480F002285CEE603590E6DF
:2026FA00B9E0702F788EE2FE788FE225E0FC420690E740EEF090E741E4F090E6B504F090A0
:20271A00E68AE4F090E68B7402F090E6A07480F002285CED602890E6B9E0702290E740E4C3
:20273A00F090E741F090E6B504F090E68AE4F090E68B7402F090E6A07480F002285CBF024C
:20275A0002800302280790E6B9E0FEBE03028008BE0102800302280790E6BAE0FDA3E0FE4E
:20277A004D600302285C90E6BCE0F582122586AD82AE83ED4E700302285C90E6B9E0FCBC68
:20279A0003188D828E83E0FC4304018D828E83ECF090E6A07480F002285C90E6BCE0F582BB
:2027BA00C006C005122EBDE582D005D006700302285C8D828E83E0FC5304FE8D828E83EC0F
:2027DA00F090E6BCE0FDA3E08D0453040F530580E4C423CDC423541F6DCD541FCD6DCDFEEA
:2027FA0090E683ED4CF0E043E020F08055BF824C90E6B9E0704690E6BCE0F582122586AE6F
:20281A0082AF83EE4F603B8E828F83E0FE5306017F00EE4FB40100B3E433FF90E740F09047
:20283A00E741E4F090E6B504F090E68AE4F090E68B7402F090E6A07480F0800690E6B81268
:20285A0004D35391EF90E65D7401F0D086D0D0D000D001D002D003D004D005D006D007D01A
:20287A0083D082D0F0D0E0D02032AE82AF837895E2B4012C7896E270278E828F83E493FC89
:20289A00A3E493FD786AECF208EDF28C828D83E493786CF208E4F290E00012222C022B0D0D
:2028BA007895E2B4063C7896E270378E828F83A3A3E493FCA3E493FD4C700790E6A0740142
:2028DA00F0228C028D03786AEAF208EBF28C828D83E493786CF208E4F290E00012222C02F0
:2028FA002B0D7895E2B402028003022A2B8E828F83A3A3A3A3E493FD7896C3E29D4003024E
:20291A002A2B8E828F83A3A3A3A3A3E493FCA3E493FD7896E275F002A42CF582ED35F0F5C8
:20293A0083E493FCA3E493FD74092CFAE43DFB7897EAF208EBF2087480F28C028D03786AF3
:20295A00EAF208EBF28C828D83E493786CF208E4F290E000C005C00412222CD004D0058CC5
:20297A00828D83E4932400FCE434E0FD7897E2F52108E2F52208E2F5238C248D258521828B
:20299A008522838523F0122FA4FAA3122FA4FB786AEAF208EBF28A828B83E493786CF208E7
:2029BA00E4F2852482852583C005C00412222CD004D0058521828522838523F0122FA4FA74
:2029DA00A3122FA4FB8A828B83E4932CFCE43DFD74022521F521E43522F522852182852290
:2029FA00838523F0122FA4FAA3122FA44A708A90E002E0FAA3E0FB4A6003022B0DECC39403
:202A1A0000FCED94E0FD90E002ECF0EDA3F0022B0D7895E2B4030474018001E4FD602278BF
:202A3A0096E2701D786A74A3F2087431F29031A3E493786CF208E4F290E00012222C022B61
:202A5A000DED7003022B067896E2FC7D0024FFFAED34FFFB74072EF582E43FF583C006C0DA
:202A7A0007E493FF7E00C3EA9FEB64808EF063F08095F0D007D006507374082EF582E43F9C
:202A9A00F583E493FEA3E493FF1CBCFF011DEC2CFCED33FDEC2EF582ED3FF583E493FEA3A3
:202ABA00E493FF90E0007402F090E00104F074012401FCE434E0FD8E828F83E493FB603399
:202ADA000EBE00010F8C828D83EBF074012CFAE43DFB8A828B83E4F0042AFCE43BFD90E0AC
:202AFA0000E0FB0B0B90E000EBF080CB90E6A07401F0227E007FE090E6B57401F090E6B302
:202B1A00EFF090E6B4EEF090E6A07480F022AE82AF83A3A3A3A3A3E493FCA3E493FD740405
:202B3A002EFEE43FFF789CE4F28E828F83E493FA789CC3E29A400122C006C007789CE27502
:202B5A00F002A42CF582ED35F0F583E493FBA3E493FA74092BFEE43AFF789DEEF208EFF271
:202B7A00087480F27F008B828A83A3A3A3A3A3E493FE7890E2B506028007D007D006022C07
:202B9A0093D007D006789DE2F52608E2F52708E2F528C004C0058526828527838528F01228
:202BBA002FA4FAA3122FA4FD8A828D83A3E493F5297404B529028006D005D0048047D00532
:202BDA00D0048526828527838528F0122FA4F52AA3122FA4F52B852A82852B83A3A3E49341
:202BFA00FA789AE2B50214852A82852B83A3A3A3E493FA789BE2B5020280047A0080027A9C
:202C1A00018A0780517405B5294CEF6049C004C0058526828527838528F0122FA4FAA312E6
:202C3A002FA4FD8A828D83A3A3E493FD740F5DFC530580E423CDC423541F6DCD541FCD6D0B
:202C5A00CD30E40244E0FA90E683ED4CF0E043E020F0D005D00474022526F526E43527F56A
:202C7A00278526828527838528F0122FA4FAA3122FA4FB4A6003022BAC789CE22401F20223
:022C9A002B43CA
:0431A3000403090414
:012C9C003205
:200076007900E94400601B7A009031A778B775923EE493F2A308B800020592D9F4DAF27580
:0200960092FFD7
:012C9D003204
:012C9E003203
:030100000225E4F1
:03010400022FA126
:03010800022EBB09
:03010C00022F9D22
:03011000022FA318
:03011400022FC7F0
:03011800022EB8FC
:03011C000201B825
:03012000020F5576
:03012400020F586F
:03012800022ECCD8
:03012C00022FC6D9
:03013000020F5B60
:03013400020F5E59
:03013800020F6152
:03013C00020F644B
:03014000022EC9C3
:030144000201B8FD
:03014800022FC0C3
:03014C00022FC1BE
:03015000022FC2B9
:03015400022FC3B4
:03015800022FC4AF
:03015C00022FC5AA
:03016000022FA2C9
:030164000201B8DD
:030168000201B8D9
:03016C000201B8D5
:03017000022ECB91
:03017400022ECD8B
:03017800022EEC68
:03017C00022EEE62
:03018000022ECE7E
:03018400022EED5B
:03018800022EEF55
:03018C00022F9EA1
:03019000022E3309
:03019400022EB97F
:03019800022EBC78
:03019C00022EC868
:0301A000022EB775
:0301A400022EBA6E
:0301A800022EC75D
:0301AC00022ECA56
:0301B000022CE539
:0301B400022FCC4B
:0101B8003214
:092C9F000000000000000000220A
:1B2CA80020F71130F6138883A88220F509F6A8837583002280FEF280F5F0222B
:012CC30032DE
:202CC400AA83AB828BF0903EA1E0A4F8A9F08AF0E0A429F98BF0A3E0A429F58388822222E6
:012CE40032BD
:012CE50032BC
:202CE600AF82AE83ADF0FC78A7EFF208EEF208EDF208ECF278A7E2FF78A5E28FF0A4FFAD50
:202D0600F078ADEFF208EDF278A7E2FF78A3E28FF0A4FFADF078ABEFF208EDF278AEE2FF22
:202D260078AAE2FE78A3E28EF0A42FFF78AEF278A9E2FE78A4E28EF0A42F78AEF278ADE2B7
:202D4600FE08E2FF78A9E2FD78A3E28DF0A4ABF02EFEEB3FFF78ADEEF208EFF278A8E2FD8B
:202D660078A4E28DF0A4ABF02EFEEB3FFF78ADEEF208EFF278A8E2FF78A5E28FF0A478AA0B
:202D8600F278A8E2FF78A3E28FF0A4FFADF078A8EFF208EDF278A7E2FF78A6E28FF0A478FB
:202DA600A6F278A7E2FF78A4E28FF0A4FFADF078A4EFF208EDF278A3E4F278A7F278ABE2CD
:202DC600F52608E2F52708E2F52808E2F52978A7E2FA08E2FB08E2FE08E2FFEA2526F526BC
:202DE600EB3527F527EE3528F528EF3529F52978ABE526F208E527F208E528F208E529F262
:202E060078ABE208E208E208E278A3E2FC08E2FD08E2FE08E2FFEC2526FCED3527FDEE359C
:0C2E260028FEEF35298C828D838EF0226F
:012E3200326D
:012E3300326C
:202E3400AE82AF837D007C0078B0E2235401FB703578AFE225E0F208E233F278AFC3E2F531
:202E5400F0EE95F008E2F5F0EF95F0501478AFE2F5F008E2C313C5F01318F2C5F008F280A5
:202E7400050C8C0580C278AFC3E2F5F0EE95F008E2F5F0EF95F0400E78AFD3E29EF4B3FE86
:202E9400B308E29FF4FF78AFE2F5F008E2C313C5F01318F2C5F008F28D041DEC70C88E82DE
:032EB4008F8322E7
:012EB70032E8
:20009E0078B1E84400600A790075923EE4F309D8FC7806E84400600C7901903EB1E4F0A38B
:0400BE00D8FCD9FA97
:012EB80032E7
:012EB90032E6
:012EBA0032E5
:012EBB0032E4
:012EBC0032E3
:0A2EBD0090E6A07480F075820122F7
:012EC70032D8
:012EC80032D7
:012EC90032D6
:012ECA0032D5
:012ECB0032D4
:012ECC0032D3
:012ECD0032D2
:012ECE0032D1
:1D2ECF0090E7407890E2F090E6B57401F090E68AE4F090E68B04F090E6A003F022D1
:012EEC0032B3
:012EED0032B2
:012EEE0032B1
:012EEF0032B0
:202EF000E583700BE58224FA400122B4001122E5826003D5E0FD0075E0FED583F674F9D5B1
:202F1000E0FD22C007C006C001C000AE82AF83EE2EF8EF33F9EE28FEEF39FF90E600E0F87A
:202F3000794C20E416C3EF13CE13CEFF795AE820E309C3EF13CE13CEFF7963E58124FAF89D
:202F5000E926C313C313F9C3EE99F582EF9400F583D000D001D006D007500122022EF0749C
:202F700011C0E0122F13158122C007C006AE82AF837411C0E0EE4F600D1EBEFF011F900338
:0D2F9000E8122F1380EF1581D006D0072224
:012F9D003201
:012F9E003200
:012F9F0032FF
:012FA00032FE
:012FA10032FD
:012FA20032FC
:012FA30032FB
:0D00690075812B122FC8E58260030200662E
:1C2FA40020F71430F6148883A88220F507E6A88375830022E280F7E49322E0223C
:012FC00032DE
:012FC10032DD
:012FC20032DC
:012FC30032DB
:012FC40032DA
:012FC50032D9
:012FC60032D8
:012FC70032D7
:042FC80075820022EC
:012FCC0032D2
:00000001FF
